:100000000C9434000C9446000C9446000C9446006A
:100010000C9446000C9446000C9446000C94460048
:100020000C9446000C9446000C9446000C94460038
:100030000C9446000C9446000C9446000C94460028
:100040000C9446000C9446000C9446000C94460018
:100050000C9446000C9446000C9446000C94460008
:100060000C9446000C94460011241FBECFEFD8E03C
:10007000DEBFCDBF21E0A0E0B1E001C01D92A23003
:10008000B207E1F70E9468000C9489000C9400000C
:10009000EAE7F0E080818064808380917A0086FDC9
:1000A000FCCF8091780090917900089590E490932E
:1000B0007C00EEE7F0E080818160808380E88093BF
:1000C0007A001AB817B888B1816088B990BF0895CE
:1000D0000E9475000E9456000E9448009093010102
:1000E000809300010E948400F7CF82E084B982E807
:1000F000809380008AE18093810080E49CE9909362
:1001000087008093860008959093890080938800EB
:060110000895F894FFCFF2
:00000001FF
