:100000000C9434000C9492000C94B8000C944600AC
:100010000C9446000C9446000C9446000C94460048
:100020000C9446000C9446000C9446000C94460038
:100030000C9446000C9446000C9446000C94460028
:100040000C9446000C9446000C9446000C94460018
:100050000C9446000C9446000C9446000C94460008
:100060000C9446000C94460011241FBECFEFD8E03C
:10007000DEBFCDBF21E0A0E0B1E001C01D92A23003
:10008000B207E1F70E9476000C943A010C9400004C
:10009000EAE7F0E080818064808380917A0086FDC9
:1000A000FCCF8091780090917900089590E690932C
:1000B0007C00EEE7F0E090819160908390E890936F
:1000C0007A001AB817B898B121E030E002C0220FC8
:1000D000331F8A95E2F7292B28B980E480BF089561
:1000E0008CE08BB983E08DBB789408950E94DE008C
:1000F00080E090E00E94560080E090E00E94ED00D9
:100100002FEF83ED90E3215080409040E1F700C055
:1001100000000E9470000E944800909301018093AB
:100120000001F9CF1F920F920FB60F9211242F9357
:100130003F934F935F936F937F938F939F93AF936F
:10014000BF93EF93FF938FEF90E00E94ED00FF913C
:10015000EF91BF91AF919F918F917F916F915F913F
:100160004F913F912F910F900FBE0F901F901895B8
:100170001F920F920FB60F9211242F933F934F931C
:100180005F936F937F938F939F93AF93BF93EF93FF
:10019000FF9380E090E00E94ED00FF91EF91BF910E
:1001A000AF919F918F917F916F915F914F913F910F
:1001B0002F910F900FBE0F901F90189582E084B979
:1001C00082E8809380008AE18093810080E49CE94A
:1001D00090938700809386000895AFEFB0E0A81B4E
:1001E000B90B28ED3EE00E9433012FEF30E040E0F4
:1001F00050E00E94020120553B4F3093890020932C
:1002000088000895A1E21A2EAA1BBB1BFD010DC098
:10021000AA1FBB1FEE1FFF1FA217B307E407F507B6
:1002200020F0A21BB30BE40BF50B661F771F881F92
:10023000991F1A9469F760957095809590959B0128
:10024000AC01BD01CF010895A29FB001B39FC001D1
:10025000A39F700D811D1124911DB29F700D811DF2
:100260001124911D08950E942401B7FF0895821B57
:08027000930B0895F894FFCFF1
:00000001FF
