S00C0000746573742E7372656358
S11300000C9434000C9446000C9446000C94460066
S11300100C9446000C9446000C9446000C94460044
S11300200C9446000C9446000C9446000C94460034
S11300300C9446000C9446000C9446000C94460024
S11300400C9446000C9446000C9446000C94460014
S11300500C9446000C9446000C9446000C94460004
S11300600C9446000C94460011241FBECFEFD8E038
S1130070DEBFCDBF21E0A0E0B1E001C01D92A230FF
S1130080B207E1F70E9448000C9467000C9400004A
S11300900E9453008FEF93E090930101809300013D
S11300A00E946200F7CF82E084B982E880938000E6
S11300B08AE18093810080E49CE990938700809397
S11300C08600089590938900809388000895F89499
S10500D0FFCF5C
S9030000FC
