S00C0000746573742E7372656358
S11300000C9434000C9446000C9446000C94460066
S11300100C9446000C9446000C9446000C94460044
S11300200C9446000C9446000C9446000C94460034
S11300300C9446000C9446000C9446000C94460024
S11300400C9446000C9446000C9446000C94460014
S11300500C9446000C9446000C9446000C94460004
S11300600C9446000C94460011241FBECFEFD8E038
S1130070DEBFCDBF21E0A0E0B1E001C01D92A230FF
S1130080B207E1F70E946C000C94AC000C940000E1
S113009082E084B982E8809380008AE180938100C1
S11300A080E49CE9909387008093860008952FEF65
S11300B033E0281B390BA8EDBEE00E949D002FEF12
S11300C033E040E050E00E947B0020553B4F3093EA
S11300D089002093880008950E9448008FEF93E0E0
S11300E0909301018093000180910001909101019E
S11300F00E945700F9CFA1E21A2EAA1BBB1BFD01D7
S11301000DC0AA1FBB1FEE1FFF1FA217B307E407F2
S1130110F50720F0A21BB30BE40BF50B661F771F4A
S1130120881F991F1A9469F760957095809590952A
S11301309B01AC01BD01CF010895A29FB001B39F03
S1130140C001A39F700D811D1124911DB29F700DDC
S10F0150811D1124911D0895F894FFCF27
S9030000FC
