S00C0000746573742E7372656358
S11300000C9434000C94C3000C94FD000C94510027
S11300100C9451000C9451000C9451000C94510018
S11300200C9451000C9451000C9451000C94510008
S11300300C9451000C9451000C9451000C945100F8
S11300400C9451000C9451000C9451000C945100E8
S11300500C9451000C9451000C9451000C945100D8
S11300600C9451000C94510011241FBECFEFD8E022
S1130070DEBFCDBF11E0A0E0B1E0ECE7F4E002C0E8
S113008005900D92AA31B107D9F721E0AAE1B1E0B8
S113009001C01D92AE31B207E1F70E9492000C94A8
S11300A03C020C940000EAE7F0E0808180648083E5
S11300B080917A0086FDFCCF2091780080917900B0
S11300C090E0982F8827822B089590E490937C00E9
S11300D0EEE7F0E080818160808383E880937A009A
S11300E01AB817B888B1836088B990BF089581E0C1
S11300F080937C00EAE7F0E08081806480838091D3
S11301007A0086FDFCCF209178008091790090E000
S1130110982F8827822B08958CE08BB983E08DBBC0
S1130120789408950E9407010E9465000E942B01A3
S113013080E090E00E9416012FEF83ED90E32150C0
S113014080409040E1F700C000000E948C000E94B3
S1130150530090931D0180931C010E94770090939B
S11301601B0180931A0180911C0190911D010E9432
S113017016012FEF83ED90E3215080409040E1F78A
S113018000C00000E4CF1F920F920FB60F9211240B
S11301902F933F934F935F936F937F938F939F938B
S11301A0AF93BF93EF93FF9380E091E00E944301EC
S11301B080911C0190911D010E9456010E9404022D
S11301C08CE091E00E94430180911A0190911B01FF
S11301D00E9456010E940402FF91EF91BF91AF91DA
S11301E09F918F917F916F915F914F913F912F914B
S11301F00F900FBE0F901F9018951F920F920FB67D
S11302000F9211240F900FBE0F901F90189582E04B
S113021084B982E8809380008AE18093810080E43D
S11302209CE9909387008093860008952FEF33E034
S1130230281B390BA8EDBEE00E942D022FEF33E0FE
S113024040E050E00E940B0220553B4F3093890060
S11302502093880008951092C50087E68093C40017
S1130260E0ECF0E080818D7F808388E18093C100A1
S113027086E08093C20008959091C00095FFFCCF62
S11302808093C60008950F931F93CF938C01C0E011
S113029003C00E943C01CF5FF801EC0FF11D808187
S11302A08111F7CFCF911F910F9108950F931F9351
S11302B0CF93DF93EC019C01329522952F70232775
S11302C03F702327A7E4B3E00E942D0296958795FB
S11302D09695879596958795805D0E943C019E0131
S11302E0369527953695279536952795A5ECB0E252
S11302F00E942D02AC01529542954F7045275F70C4
S113030045279A01ADECBCEC0E942D029695879589
S113031096958795969587959C01220F331F880F94
S1130320991F880F991F880F991F820F931F9A0195
S1130330281B390BC901805D0E943C019E01369542
S1130340279536952795ABE7B4E10E942D02AC01C1
S1130350569547959A01ADECBCEC0E942D029695FA
S1130360879596958795969587959C01220F331FBF
S1130370880F991F880F991F880F991F820F931F49
S11303809A01281B390BC901805D0E943C019E0122
S1130390ADECBCEC0E942D028C01169507951695C8
S11303A007951695079598010E942D0296958795B5
S11303B096958795969587959C01220F331F880FF4
S11303C0991F880F991F880F991F820F931F9801F7
S11303D0281B390BC901805D0E943C01C801880FAC
S11303E0991F000F111F000F111F000F111F080F7D
S11303F0191FCE01801B910B805D0E943C01DF918F
S1130400CF911F910F9108958AE00E943C018DE0E5
S11304100E943C010895A1E21A2EAA1BBB1BFD01F8
S11304200DC0AA1FBB1FEE1FFF1FA217B307E407CF
S1130430F50720F0A21BB30BE40BF50B661F771F27
S1130440881F991F1A9469F7609570958095909507
S11304509B01AC01BD01CF010895A29FB001B39FE0
S1130460C001A39F700D811D1124911DB29F700DB9
S10F0470811D1124911D0895F894FFCF04
S113047C54656D702076616C75653A004C696768DB
S10D048C742076616C75653A000077
S9030000FC
