:100000000C9434000C948F000C9499000C944600CE
:100010000C9446000C9446000C9446000C94460048
:100020000C9446000C9446000C9446000C94460038
:100030000C9446000C9446000C9446000C94460028
:100040000C9446000C9446000C9446000C94460018
:100050000C9446000C9446000C9446000C94460008
:100060000C9446000C94460011241FBECFEFD8E03C
:10007000DEBFCDBF21E0A0E0B1E001C01D92A23003
:10008000B207E1F70E9475000C94F8000C94000090
:10009000EAE7F0E080818064808380917A0086FDC9
:1000A000FCCF8091780090917900089540E44093CE
:1000B0007C00EEE7F0E090819160908390E890936F
:1000C0007A001AB817B898B121E030E002C0220FC8
:1000D000331F8A95E2F7292B28B940BF08958CE099
:1000E0008BB983E08DBB789408950E94A30080E0D3
:1000F00090E00E9456000E946F000E94480090937A
:100100000101809300010E94B2002FEF83ED90E384
:10011000215080409040E1F700C00000EECF1F92D8
:100120000F920FB60F9211240F900FBE0F901F90D9
:1001300018951F920F920FB60F9211240F900FBEB9
:100140000F901F90189582E084B982E88093800018
:100150008AE18093810080E49CE9909387008093FA
:10016000860008952FEF33E0281B390BA8EDBEE081
:100170000E94E9002FEF33E040E050E00E94C7000A
:1001800020553B4F30938900209388000895A1E2C9
:100190001A2EAA1BBB1BFD010DC0AA1FBB1FEE1F01
:1001A000FF1FA217B307E407F50720F0A21BB30B4C
:1001B000E40BF50B661F771F881F991F1A9469F7C8
:1001C00060957095809590959B01AC01BD01CF0124
:1001D0000895A29FB001B39FC001A39F700D811D20
:1001E0001124911DB29F700D811D1124911D089540
:0401F000F894FFCFB1
:00000001FF
