:100000000C9434000C943E000C943E000C943E0082
:100010000C943E000C943E000C943E000C943E0068
:100020000C943E000C943E000C943E000C943E0058
:100030000C943E000C943E000C943E000C943E0048
:100040000C943E000C943E000C943E000C943E0038
:100050000C943E000C943E000C943E000C943E0028
:100060000C943E000C943E0011241FBECFEFD8E04C
:10007000DEBFCDBF0E946C000C9471000C94000098
:1000800082E084B982E8809380008AE180938100D5
:1000900080E49CE990938700809386000895E8E8C7
:1000A000F0E080EB94E0918380832FEF83ED90E389
:1000B000215080409040E1F700C0000088E893E1C3
:1000C000918380832FEF83ED90E321508040904017
:1000D000E1F700C0000008950E9440000E944F0018
:0600E000FDCFF894FFCFF4
:00000001FF
