:100000000C9434000C94CB000C9405010C9451001A
:100010000C9451000C9451000C9451000C9451001C
:100020000C9451000C9451000C9451000C9451000C
:100030000C9451000C9451000C9451000C945100FC
:100040000C9451000C9451000C9451000C945100EC
:100050000C9451000C9451000C9451000C945100DC
:100060000C9451000C94510011241FBECFEFD8E026
:10007000DEBFCDBF11E0A0E0B1E0ECE8F4E002C0EB
:1000800005900D92AA31B107D9F721E0AAE1B1E0BC
:1000900001C01D92AE31B207E1F70E949A000C94A4
:1000A00044020C940000ECE7F0E08081807F8083C4
:1000B000EAE7F0E080818064808380917A0086FDA9
:1000C000FCCF209178008091790090E0982F8827CC
:1000D000822B089590E490937C00EEE7F0E080811D
:1000E0008160808383E880937A001AB817B888B15A
:1000F000836088B990BF0895ECE7F0E08081807F4D
:1001000081608083EAE7F0E0808180648083809171
:100110007A0086FDFCCF209178008091790090E0F4
:10012000982F8827822B08958CE08BB983E08DBBB4
:10013000789408950E940F010E946A000E94330182
:1001400080E090E00E941E012FEF83ED90E32150AC
:1001500080409040E1F700C000000E9494000E949F
:10016000530090931D0180931C010E947C0090938A
:100170001B0180931A0180911C0190911D010E9426
:100180001E012FEF83ED90E3215080409040E1F776
:1001900000C00000E4CF1F920F920FB60F921124FF
:1001A0002F933F934F935F936F937F938F939F937F
:1001B000AF93BF93EF93FF9380E091E00E944B01D8
:1001C00080911C0190911D010E945E010E940C0211
:1001D0008CE091E00E944B0180911A0190911B01EB
:1001E0000E945E010E940C02FF91EF91BF91AF91BE
:1001F0009F918F917F916F915F914F913F912F913F
:100200000F900FBE0F901F9018951F920F920FB670
:100210000F9211240F900FBE0F901F90189582E03F
:1002200084B982E8809380008AE18093810080E431
:100230009CE9909387008093860008952FEF33E028
:10024000281B390BA8EDBEE00E9435022FEF33E0EA
:1002500040E050E00E94130220553B4F309389004C
:100260002093880008951092C50087E68093C4000B
:10027000E0ECF0E080818D7F808388E18093C10095
:1002800086E08093C20008959091C00095FFFCCF56
:100290008093C60008950F931F93CF938C01C0E005
:1002A00003C00E944401CF5FF801EC0FF11D808173
:1002B0008111F7CFCF911F910F9108950F931F9345
:1002C000CF93DF93EC019C01329522952F70232769
:1002D0003F702327A7E4B3E00E94350296958795E7
:1002E0009695879596958795805D0E9444019E011D
:1002F000369527953695279536952795A5ECB0E246
:100300000E943502AC01529542954F7045275F70AF
:1003100045279A01ADECBCEC0E9435029695879575
:1003200096958795969587959C01220F331F880F88
:10033000991F880F991F880F991F820F931F9A0189
:10034000281B390BC901805D0E9444019E0136952E
:10035000279536952795ABE7B4E10E943502AC01AD
:10036000569547959A01ADECBCEC0E9435029695E6
:10037000879596958795969587959C01220F331FB3
:10038000880F991F880F991F880F991F820F931F3D
:100390009A01281B390BC901805D0E9444019E010E
:1003A000ADECBCEC0E9435028C01169507951695B4
:1003B00007951695079598010E94350296958795A1
:1003C00096958795969587959C01220F331F880FE8
:1003D000991F880F991F880F991F820F931F9801EB
:1003E000281B390BC901805D0E944401C801880F98
:1003F000991F000F111F000F111F000F111F080F71
:10040000191FCE01801B910B805D0E944401DF917A
:10041000CF911F910F9108958AE00E9444018DE0D1
:100420000E9444010895A1E21A2EAA1BBB1BFD01E4
:100430000DC0AA1FBB1FEE1FFF1FA217B307E407C3
:10044000F50720F0A21BB30BE40BF50B661F771F1B
:10045000881F991F1A9469F76095709580959095FB
:100460009B01AC01BD01CF010895A29FB001B39FD4
:10047000C001A39F700D811D1124911DB29F700DAD
:0C048000811D1124911D0895F894FFCFF8
:10048C0054656D702076616C75653A004C696768CF
:0A049C00742076616C75653A00006B
:00000001FF
