S00C0000746573742E7372656358
S11300000C9434000C94AD000C94DB000C9451005F
S11300100C9451000C9451000C9451000C94510018
S11300200C9451000C9451000C9451000C94510008
S11300300C9451000C9451000C9451000C945100F8
S11300400C9451000C9451000C9451000C945100E8
S11300500C9451000C9451000C9451000C945100D8
S11300600C9451000C94510011241FBECFEFD8E022
S1130070DEBFCDBF11E0A0E0B1E0E8E3F4E002C0F0
S113008005900D92A830B107D9F721E0A8E0B1E0BE
S113009001C01D92AA30B207E1F70E9484000C94BB
S11300A01A020C940000EAE7F0E080818064808307
S11300B080917A0086FDFCCF2091780080917900B0
S11300C090E0982F8827822B089540E440937C0089
S11300D0EEE7F0E090819160908393E890937A004A
S11300E01AB817B898B121E030E002C0220F331FCC
S11300F08A95E2F7292B28B940BF08958CE08BB983
S113010083E08DBB789408950E94E50080E090E040
S11301100E9465000E94090180E090E00E94F400C2
S11301202FEF83ED90E3215080409040E1F700C031
S113013000000E947E000E94530090930901809366
S113014008010E94F4002FEF83ED90E321508040DA
S11301509040E1F700C00000EECF1F920F920FB65F
S11301600F9211242F933F934F935F936F937F9339
S11301708F939F93AF93BF93EF93FF9380E091E0AE
S11301800E94210180910801909109010E9434018B
S11301900E94E201FF91EF91BF91AF919F918F91E6
S11301A07F916F915F914F913F912F910F900FBE6F
S11301B00F901F9018951F920F920FB60F92112453
S11301C00F900FBE0F901F90189582E084B982E8BB
S11301D0809380008AE18093810080E49CE990937D
S11301E087008093860008952FEF33E0281B390B96
S11301F0A8EDBEE00E940B022FEF33E040E050E098
S11302000E94E90120553B4F3093890020938800D8
S113021008951092C50087E68093C400E0ECF0E0F6
S113022080818D7F808388E18093C10086E0809304
S1130230C20008959091C00095FFFCCF8093C60042
S113024008950F931F93CF938C01C0E003C00E94C5
S11302501A01CF5FF801EC0FF11D80818111F7CFF6
S1130260CF911F910F9108950F931F93CF93DF9315
S1130270EC019C01329522952F7023273F70232790
S1130280A7E4B3E00E940B0296958795969587950F
S113029096958795805D0E941A019E013695279553
S11302A03695279536952795A5ECB0E20E940B026A
S11302B0AC01529542954F7045275F7045279A01CE
S11302C0ADECBCEC0E940B029695879596958795AC
S11302D0969587959C01220F331F880F991F880FCD
S11302E0991F880F991F820F931F9A01281B390B9E
S11302F0C901805D0E941A019E01369527953695A5
S11303002795ABE7B4E10E940B02AC0156954795E3
S11303109A01ADECBCEC0E940B02969587959695DC
S11303208795969587959C01220F331F880F991FF7
S1130330880F991F880F991F820F931F9A01281BFA
S1130340390BC901805D0E941A019E01ADECBCEC21
S11303500E940B028C011695079516950795169524
S1130360079598010E940B02969587959695879517
S1130370969587959C01220F331F880F991F880F2C
S1130380991F880F991F820F931F9801281B390BFF
S1130390C901805D0E941A01C801880F991F000FCE
S11303A0111F000F111F000F111F080F191FCE017D
S11303B0801B910B805D0E941A01DF91CF911F91E8
S11303C00F9108958AE00E941A018DE00E941A019B
S11303D00895A1E21A2EAA1BBB1BFD010DC0AA1F82
S11303E0BB1FEE1FFF1FA217B307E407F50720F09A
S11303F0A21BB30BE40BF50B661F771F881F991F15
S11304001A9469F760957095809590959B01AC015D
S1130410BD01CF010895A29FB001B39FC001A39F66
S1130420700D811D1124911DB29F700D811D112429
S10B0430911D0895F894FFCF1B
S10B043856616C75653A000081
S9030000FC
