S00C0000746573742E7372656358
S11300000C9434000C9446000C9446000C94460066
S11300100C9446000C9446000C9446000C94460044
S11300200C9446000C9446000C9446000C94460034
S11300300C9446000C9446000C9446000C94460024
S11300400C9446000C9446000C9446000C94460014
S11300500C9446000C9446000C9446000C94460004
S11300600C9446000C94460011241FBECFEFD8E038
S1130070DEBFCDBF21E0A0E0B1E001C01D92A230FF
S1130080B207E1F70E946E000C94DB000C940000B0
S1130090EAE7F0E080818064808380917A0086FDC5
S11300A0FCCF8091780090917900089590E490932A
S11300B07C00EEE7F0E080818160808380E88093BB
S11300C07A001AB817B888B1816088B990BF0895CA
S11300D084E08BB981E08DBB789408950E948600FA
S11300E00E9456000E9468000E94480090930101FB
S11300F0809300010E9495002FEF83ED90E321503F
S113010080409040E1F700C00000EECF82E084B967
S113011082E8809380008AE18093810080E49CE9F6
S1130120909387008093860008952FEF33E0281B77
S1130130390BA8EDBEE00E94CC002FEF33E040E085
S113014050E00E94AA0020553B4F30938900209331
S113015088000895A1E21A2EAA1BBB1BFD010DC045
S1130160AA1FBB1FEE1FFF1FA217B307E407F50763
S113017020F0A21BB30BE40BF50B661F771F881F3F
S1130180991F1A9469F760957095809590959B01D5
S1130190AC01BD01CF010895A29FB001B39FC0017E
S11301A0A39F700D811D1124911DB29F700D811D9F
S10D01B01124911D0895F894FFCF67
S9030000FC
